S01700004763634170706C69636174696F6E432E7372656349
S113000071C0000081C000007FC000007DC00000FE
S11300107BC0000079C0000077C0000075C00000FC
S113002073C0000071C000006FC000006DC000000C
S11300306BC0000069C0000067C0000065C000001C
S113004063C000006EC000005FC000005DC000001F
S11300505BC0000059C0000057C0000055C000003C
S113006053C0000051C000004FC000004DC000004C
S11300704BC000004AC0000047C0000045C000005B
S113008043C0000041C000003FC000003DC000006C
S11300903BC0000039C0000037C0000035C000007C
S11300A033C0000031C000002FC000002DC000008C
S11300B02BC0000029C0000027C0000025C000009C
S11300C023C0000021C000001FC000001DC00000AC
S11300D01BC0000019C0000017C0000015C00000BC
S11300E013C0000011241FBECFEFD1E2DEBFCDBF8D
S11300F000E00CBF22E0A0E0B2E001C01D92A631F6
S1130100B207E1F70BD161C17BCF1F920F920FB6FB
S11301100F921124109201020F900FBE0F901F90A6
S113012018951F920F920FB60F9211248F9381E0AE
S1130130809300028F910F900FBE0F901F9018951F
S1130140ECE7F0E0808180648083EAE7F0E080817E
S11301508F6880830895883078F0EBE7F0E0908131
S1130160986090838850ECE7F0E09081907E9083D3
S11301709081892B80830CC0EBE7F0E090811082A2
S1130180ECE7F0E09081907E90839081892B8083CE
S113019081E080930102EAE7F0E08081806480835B
S11301A001C00000809101028111FBCF1092000276
S11301B080917800909179000895893B2BE0920713
S11301C010F088EB9BE0009711F481E090E0E0E808
S11301D0F0E0208120642083E1E8F0E020812860C1
S11301E02083EFE6F0E0208122602083883C9105A3
S11301F0F8F09C012E7F40E050E060E074E284EF70
S113020090E0A5D0215031093093890020938800D3
S1130210E0E8F0E08081887F8083E2E8F0E080819C
S113022080688083E1E8F0E08081816080830895C4
S11302308E31910530F19C013695279522953295A2
S1130240307F3227207F322740E050E060E074E2C4
S113025084EF90E07CD021503109309389002093C1
S11302608800E0E8F0E08081887F8083E2E8F0E0C5
S1130270808180688083E1E8F0E08081826080830F
S113028008958330910528F19C013695279536957C
S1130290322F22273795279540E050E060E074E242
S11302A084EF90E054D02150310930938900209399
S11302B08800E0E8F0E08081887F8083E2E8F0E075
S11302C0808180688083E1E8F0E0808183608083BE
S11302D008959C0136952795322F2227330F330F2B
S11302E0330F40E050E060E074E284EF90E02FD000
S11302F0215031093093890020938800E0E8F0E030
S11303008081887F8083E2E8F0E080818068808358
S1130310E1E8F0E08081846080830895789410DFC0
S113032088EB9BE04ADFC0E0D0E08091000281309E
S113033049F411DFFE01EE0FFF1FEE5FFD4F9183C5
S113034080832196C930D10581F70000FECF052EA8
S113035097FB16F400940FD057FD05D014D007FC7A
S113036002D046F408C050954095309521953F4FF2
S11303704F4F5F4F089590958095709561957F4F8D
S11303808F4F9F4F0895A1E21A2EAA1BBB1BFD019C
S11303900DC0AA1FBB1FEE1FFF1FA217B307E40760
S11303A0F50720F0A21BB30BE40BF50B661F771FB8
S11303B0881F991F1A9469F7609570958095909598
S11103C09B01AC01BD01CF010895F894FFCF5D
S9030000FC
